:020000040800F2
:1000000000000220451700087D1400088114000834
:1000100085140008891400088D14000800000000F1
:100020000000000000000000000000009114000823
:100030009514000800000000991400089D140008A1
:1000400095170008951700089517000895170008E0
:1000500095170008951700089517000895170008D0
:1000600095170008951700089517000895170008C0
:1000700095170008951700089517000895170008B0
:1000800095170008951700089517000895170008A0
:100090009517000895170008951700089517000890
:1000A0009517000895170008951700089517000880
:1000B000A1140008AD140008951700089517000852
:1000C0009517000895170008951700089517000860
:1000D00095170008B914000895170008951700082F
:1000E0009517000895170008951700089517000840
:1000F0009517000895170008951700089517000830
:10010000951700089517000895170008951700081F
:10011000951700089517000895170008951700080F
:1001200095170008951700089517000895170008FF
:1001300095170008951700089517000895170008EF
:1001400095170008951700089517000895170008DF
:1001500095170008951700089517000895170008CF
:1001600095170008951700089517000895170008BF
:100170009517000895170008951700080000000063
:0801800095170008951700080F
:1001C00010B5054C237833B9044B13B10448AFF391
:1001D00000800123237010BD40AE0020000000000D
:1001E000F094000808B5034B1BB103490348AFF373
:1001F000008008BD0000000044AE0020F09400081C
:1002000053B94AB9002908BF00281CBF4FF0FF317D
:100210004FF0FF3000F074B9ADF1080C6DE904CE79
:1002200000F006F8DDF804E0DDE9022304B07047D1
:100230002DE9F047089E0D4604468846002B4DD117
:100240008A42944668D9B2FA82F252B101FA02F3B4
:10025000C2F1200120FA01F10CFA02FC41EA030884
:1002600094404FEA1C45210CB8FBF5FE1FFA8CF7B1
:1002700005FB1E8341EA03430EFB07F199420BD9AC
:100280001CEB03030EF1FF3080F01E81994240F217
:100290001B81AEF1020E63445B1AA4B2B3FBF5F00E
:1002A00005FB103344EA034400FB07F7A7420AD9D1
:1002B0001CEB040400F1FF3380F00881A74240F2F8
:1002C000058164440238E41B40EA0E4000211EB15F
:1002D000D4400023C6E90043BDE8F0878B4208D92B
:1002E000002E00F0EE800021C6E900050846BDE8BA
:1002F000F087B3FA83F100294AD1AB4202D382429C
:1003000000F2F980841A65EB030301209846002E61
:10031000E2D0C6E90048DFE702B9FFDEB2FA82F2B6
:10032000002A40F09180A1EB0C054FEA1C471FFA10
:100330008CFE0121B5FBF7F307FB1350250C45EAB2
:1003400000450EFB03F0A84208D91CEB050503F19C
:10035000FF3802D2A84200F2CB8043462D1AA4B245
:10036000B5FBF7F007FB105544EA05440EFB00FE11
:10037000A64508D91CEB040400F1FF3502D2A645BE
:1003800000F2BB802846A4EB0E0440EA03409EE73F
:10039000C1F120078B4022FA07FC4CEA030C20FA3B
:1003A00007F405FA01F31C43FD404FEA1C4900FA2B
:1003B00001F3B5FBF9F8200C1FFA8CFE09FB185568
:1003C00040EA054508FB0EF0A84202FA01F20BD9FB
:1003D0001CEB050508F1FF3A80F08880A84240F246
:1003E0008580A8F1020865442D1AA4B2B5FBF9F086
:1003F00009FB105544EA054500FB0EFEAE4508D941
:100400001CEB050500F1FF346CD2AE456AD9023809
:10041000654440EA0840A0FB0294A5EB0E05A54206
:10042000C846A64656D353D05EB1B3EB080265EB7F
:100430000E0505FA07F722FA01F3CD401F43C6E97E
:1004400000750021BDE8F087C2F1200320FA03F116
:100450000CFA02FC25FA03F395400D434FEA1C47C2
:100460001FFA8CFEB3FBF7F107FB11302B0C43EAAC
:10047000004301FB0EF0984204FA02F408D91CEB89
:10048000030301F1FF382FD298422DD9023963447A
:100490001B1AADB2B3FBF7F007FB103345EA034577
:1004A00000FB0EF3AB4208D91CEB050500F1FF3849
:1004B00016D2AB4214D902386544ED1A40EA014124
:1004C00038E73146304607E78646E5E61846FAE65D
:1004D0004B45A9D2B9EB020864EB0C0E0138A3E737
:1004E0004046EAE7204694E74146D1E7D0467BE71D
:1004F000023B654432E7084609E76444023842E7B4
:10050000704700BF00000000000000000000000075
:1005100000000000000000000000000000000000DB
:1005200000000000000000000000000000000000CB
:1005300000000000000000000000000000000000BB
:1005400090F800F06DE9024520F007016FF0000C13
:1005500010F0070491F820F040F049804FF00004BB
:100560006FF00700D1E9002391F840F000F1080096
:1005700082FA4CF2A4FA8CF283FA4CF3A2FA8CF3CE
:100580004BBBD1E9022382FA4CF200F10800A4FA35
:100590008CF283FA4CF3A2FA8CF3E3B9D1E9042389
:1005A00082FA4CF200F10800A4FA8CF283FA4CF3C0
:1005B000A2FA8CF37BB9D1E9062301F1200182FA7A
:1005C0004CF200F10800A4FA8CF283FA4CF3A2FA80
:1005D0008CF3002BC6D0002A04BF04301A4612BA8E
:1005E000B2FA82F2FDE8024500EBD2007047D1E991
:1005F000002304F00305C4F100004FEAC50514F020
:10060000040F91F840F00CFA05F562EA05021CBFF0
:1006100063EA050362464FF00004A9E7000000000A
:1006200001F0FF01102A2BDB10F0070F08D010F8A3
:10063000013B013A8B422DD010F0070F42B3F6D1A7
:10064000F0B441EA012141EA014122F007047FF0C0
:1006500000070023F0E80256083C85EA010586EA17
:10066000010685FA47F5A3FA87F586FA47F6A5FA53
:1006700087F68EB9EED1F0BC01F0FF0102F007025F
:1006800032B110F8013B013A83EA010313B1F8D10A
:100690000020704701387047002D06BF35460338EB
:1006A000073815F0010F07D1013015F4807F02BF24
:1006B000013015F4C03F0130F0BC0138704700BF75
:1006C000844641EA000313F003036DD1403A41D35D
:1006D00051F8043B40F8043B51F8043B40F8043B1C
:1006E00051F8043B40F8043B51F8043B40F8043B0C
:1006F00051F8043B40F8043B51F8043B40F8043BFC
:1007000051F8043B40F8043B51F8043B40F8043BEB
:1007100051F8043B40F8043B51F8043B40F8043BDB
:1007200051F8043B40F8043B51F8043B40F8043BCB
:1007300051F8043B40F8043B51F8043B40F8043BBB
:1007400051F8043B40F8043B51F8043B40F8043BAB
:10075000403ABDD2303211D351F8043B40F8043B4B
:1007600051F8043B40F8043B51F8043B40F8043B8B
:1007700051F8043B40F8043B103AEDD20C3205D35B
:1007800051F8043B40F8043B043AF9D2043208D053
:10079000D2071CBF11F8013B00F8013B01D30B88C5
:1007A00003806046704700BF082A13D38B078DD0A3
:1007B00010F003038AD0C3F10403D21ADB071CBF75
:1007C00011F8013B00F8013B80D331F8023B20F8DF
:1007D000023B7BE7043AD9D3013A11F8013B00F818
:1007E000013BF9D20B7803704B7843708B788370A0
:1007F0006046704781F0004102E000BF83F0004393
:1008000030B54FEA41044FEA430594EA050F08BFAB
:1008100090EA020F1FBF54EA000C55EA020C7FEA6F
:10082000645C7FEA655C00F0E2804FEA5454D4EBEC
:100830005555B8BF6D420CDD2C4480EA020281EAB6
:10084000030382EA000083EA010180EA020281EAEE
:100850000303362D88BF30BD11F0004F4FEA013140
:100860004FF4801C4CEA113102D0404261EB41014F
:1008700013F0004F4FEA03334CEA133302D05242D5
:1008800063EB430394EA050F00F0A780A4F1010491
:10089000D5F1200E0DDB02FA0EFC22FA05F28018CB
:1008A00041F1000103FA0EF2801843FA05F35941B1
:1008B0000EE0A5F120050EF1200E012A03FA0EFC30
:1008C00028BF4CF0020C43FA05F3C01851EBE3715A
:1008D00001F0004507D54FF0000EDCF1000C7EEB77
:1008E00000006EEB0101B1F5801F1BD3B1F5001FB5
:1008F0000CD349085FEA30004FEA3C0C04F10104D4
:100900004FEA445212F5800F80F09A80BCF1004FFC
:1009100008BF5FEA500C50F1000041EB045141EA7E
:10092000050130BD5FEA4C0C404141EB0101013C47
:1009300028BFB1F5801FE9D291F0000F04BF014636
:100940000020B1FA81F308BF2033A3F10B03B3F108
:1009500020020CDA0C3208DD02F1140CC2F10C0298
:1009600001FA0CF021FA02F10CE002F11402D8BFF6
:10097000C2F1200C01FA02F120FA0CFCDCBF41EAC2
:100980000C019040E41AA2BF01EB0451294330BD91
:100990006FEA04041F3C1CDA0C340EDC04F114046E
:1009A000C4F1200220FA04F001FA02F340EA030045
:1009B00021FA04F345EA030130BDC4F10C04C4F18B
:1009C000200220FA02F001FA04F340EA030029466B
:1009D00030BD21FA04F0294630BD94F0000F83F4B5
:1009E000801306BF81F480110134013D4EE77FEA98
:1009F000645C18BF7FEA655C29D094EA050F08BFE4
:100A000090EA020F05D054EA000C04BF19461046C4
:100A100030BD91EA030F1EBF0021002030BD5FEA08
:100A2000545C05D14000494128BF41F0004130BD30
:100A300014F580043CBF01F5801130BD01F0004584
:100A400045F0FE4141F470014FF0000030BD7FEAF7
:100A5000645C1ABF194610467FEA655C1CBF0B46F2
:100A6000024650EA013406BF52EA033591EA030F09
:100A700041F4002130BD00BF90F0000F04BF002101
:100A8000704730B54FF4806404F132044FF0000534
:100A90004FF0000150E700BF90F0000F04BF0021AD
:100AA000704730B54FF4806404F1320410F0004513
:100AB00048BF40424FF000013EE700BF42004FEA0E
:100AC000E2014FEA31014FEA02701FBF12F07F438B
:100AD00093F07F4F81F06051704732F07F4208BF42
:100AE000704793F07F4F04BF41F40021704730B549
:100AF0004FF4607401F0004521F000411CE700BF95
:100B000050EA010208BF704730B54FF000050AE017
:100B100050EA010208BF704730B511F0004502D518
:100B2000404261EB41014FF4806404F132045FEA1A
:100B3000915C3FF4D8AE4FF003025FEADC0C18BFC3
:100B400003325FEADC0C18BF033202EBDC02C2F1B5
:100B5000200300FA03FC20FA02F001FA03FE40EA47
:100B60000E0021FA02F11444BDE600BF70B54FF04B
:100B7000FF0C4CF4E06C1CEA11541DBF1CEA135529
:100B800094EA0C0F95EA0C0F00F0DEF82C4481EA91
:100B9000030621EA4C5123EA4C5350EA013518BFB1
:100BA00052EA033541F4801143F4801338D0A0FB9E
:100BB00002CE4FF00005E1FB02E506F00042E0FB4B
:100BC00003E54FF00006E1FB03569CF0000F18BF51
:100BD0004EF0010EA4F1FF04B6F5007F64F54074F9
:100BE00004D25FEA4E0E6D4146EB060642EAC6218C
:100BF00041EA55514FEAC52040EA5E504FEACE2EF9
:100C0000B4F1FD0C88BFBCF5E06F1ED8BEF1004FFB
:100C100008BF5FEA500E50F1000041EB045170BD77
:100C200006F0004646EA010140EA020081EA0301BB
:100C3000B4EB5C04C2BFD4EB0C0541EA045170BDB7
:100C400041F480114FF0000E013C00F3AB8014F131
:100C5000360FDEBF002001F0004170BDC4F100047A
:100C6000203C35DA0C341BDC04F11404C4F12005FB
:100C700000FA05F320FA04F001FA05F240EA020056
:100C800001F0004221F0004110EBD37021FA04F68C
:100C900042EB06015EEA430E08BF20EAD37070BD46
:100CA000C4F10C04C4F1200500FA04F320FA05F0A5
:100CB00001FA04F240EA020001F0004110EBD370A7
:100CC00041F100015EEA430E08BF20EAD37070BD17
:100CD000C4F1200500FA05F24EEA020E20FA04F3F0
:100CE00001FA05F243EA020321FA04F001F000419F
:100CF00021FA04F220EA020000EBD3705EEA430E10
:100D000008BF20EAD37070BD94F0000F0FD101F03E
:100D10000046400041EB010111F4801F08BF013C77
:100D2000F7D041EA060195F0000F18BF704703F0B5
:100D30000046520043EB030313F4801F08BF013D3C
:100D4000F7D043EA0603704794EA0C0F0CEA1355F8
:100D500018BF95EA0C0F0CD050EA410618BF52EAB2
:100D60004306D1D181EA030101F000414FF00000B8
:100D700070BD50EA410606BF1046194652EA4306C6
:100D800019D094EA0C0F02D150EA013613D195EA3A
:100D90000C0F05D152EA03361CBF104619460AD182
:100DA00081EA030101F0004141F0FE4141F470018C
:100DB0004FF0000070BD41F0FE4141F4780170BD7C
:100DC00070B54FF0FF0C4CF4E06C1CEA11541DBFE1
:100DD0001CEA135594EA0C0F95EA0C0F00F0A7F8E3
:100DE000A4EB050481EA030E52EA03354FEA013110
:100DF00000F088804FEA03334FF0805545EA131323
:100E000043EA12634FEA022245EA111545EA1065EA
:100E10004FEA00260EF000419D4208BF964244F181
:100E2000FD0404F5407402D25B084FEA3202B61AA0
:100E300065EB03055B084FEA32024FF480104FF474
:100E4000002CB6EB020E75EB030E22BFB61A7546E8
:100E500040EA0C005B084FEA3202B6EB020E75EB7B
:100E6000030E22BFB61A754640EA5C005B084FEAE3
:100E70003202B6EB020E75EB030E22BFB61A7546B0
:100E800040EA9C005B084FEA3202B6EB020E75EBBB
:100E9000030E22BFB61A754640EADC0055EA060E7C
:100EA00018D04FEA051545EA16754FEA06164FEABF
:100EB000C30343EA52734FEAC2025FEA1C1CC0D16B
:100EC00011F4801F0BD141EA00014FF000004FF0F8
:100ED000004CB6E711F4801F04BF01430020B4F1B9
:100EE000FD0C88BFBCF5E06F3FF6AFAEB5EB030C71
:100EF00004BFB6EB020C5FEA500C50F1000041EB6E
:100F0000045170BD0EF0004E4EEA113114EB5C043A
:100F1000C2BFD4EB0C0541EA045170BD41F480110D
:100F20004FF0000E013C90E645EA060E8DE60CEA15
:100F3000135594EA0C0F08BF95EA0C0F3FF43BAF32
:100F400094EA0C0F0AD150EA01347FF434AF95EAE9
:100F50000C0F7FF425AF104619462CE795EA0C0FCD
:100F600006D152EA03353FF4FDAE1046194622E79A
:100F700050EA410618BF52EA43067FF4C5AE50EA74
:100F800041047FF40DAF52EA43057FF4EBAE12E764
:100F90004FF0FF3C06E000BF4FF0010C02E000BF45
:100FA0004FF0010C4DF804CD4FEA410C7FEA6C5C28
:100FB0004FEA430C18BF7FEA6C5C1BD001B050EACB
:100FC000410C0CBF52EA430C91EA030F02BF90EAB6
:100FD000020F0020704710F1000F91EA030F58BF75
:100FE000994208BF90422CBFD8176FEAE37040F0D7
:100FF000010070474FEA410C7FEA6C5C02D150EA75
:10100000013C07D14FEA430C7FEA6C5CD6D152EA2F
:10101000033CD3D05DF8040B704700BF84461046F4
:1010200062468C461946634600E000BF01B5FFF7F3
:10103000B7FF002848BF10F1000F01BD4DF808EDC3
:10104000FFF7F4FF0CBF012000205DF808FB00BF94
:101050004DF808EDFFF7EAFF34BF012000205DF8EE
:1010600008FB00BF4DF808EDFFF7E0FF94BF01203B
:1010700000205DF808FB00BF4DF808EDFFF7CEFF3C
:1010800094BF012000205DF808FB00BF4DF808ED7B
:10109000FFF7C4FF34BF012000205DF808FB00BF4C
:1010A0004FEA410C7FEA6C5C02D150EA013C0AD164
:1010B0004FEA430C7FEA6C5C02D152EA033C02D156
:1010C0004FF0000070474FF0010070474FEA4102B7
:1010D00012F5001215D211D56FF47873B3EB62528A
:1010E00012D94FEAC12343F0004343EA505311F0B1
:1010F000004F23FA02F018BF404270474FF0000043
:10110000704750EA013005D111F0004008BF6FF080
:10111000004070474FF00000704700BF2DE9F041DC
:1011200000248CB0CDE90644CDE90844434B01943A
:101130000A941A6B424E434DDFF80C8142F00402D0
:101140001A631A6B02F004020192019A02941A6B5C
:1011500042F020021A631A6B02F020020292029AF5
:1011600003941A6B42F080021A631A6B02F0800239
:101170000392039A04941A6B42F001021A631A6BE9
:1011800002F001020492049A05941A6B42F00202E2
:101190001A631B6B03F002030593304601224FF4E0
:1011A000C061059B00F048FD28460122022100F0A5
:1011B00043FD22462846042100F03EFD22464046DB
:1011C0004FF4F85100F038FD0227304606A90126F9
:1011D0004FF4C0620123CDE90623CDE9086700F092
:1011E0000DFC022306A92846089301220023CDE91D
:1011F000062300F003FC284606A906220123CDE9B8
:101200000623CDE9086700F0F9FB4FF4F85206A970
:1012100040460123CDE90623CDE908674FF4407429
:1012200000F0ECFB002501230848089306A9CDE94E
:10123000064500F0E3FB0CB0BDE8F0810038024049
:101240000014024000000240000802400004024076
:1012500030B5002395B0CDE90B33CDE90933CDE9A5
:101260000233CDE90433224900930D930693086CB1
:10127000204A40F080500864096C01F080510091D0
:1012800000990193136843F480431360136803F4D7
:101290008043022101930198089102200021CDE9A9
:1012A0000E010820A821CDE9100102200421CDE97A
:1012B00012010122102308A8CDE90B2300F0C0FC85
:1012C00008B172B6FEE74FF4A0530022CDE9042323
:1012D0000F2402254FF4805302A80521CDE90245D1
:1012E000069300F0C5FE08B172B6FEE715B030BD3A
:1012F000003802400070004008B500F071FAFFF7B6
:10130000A7FFFFF70BFF00F0C1F900F00FF900F0A5
:1013100045F90E4800F024F80D4800F0FFFF0D4994
:101320000A48012201F09CFB01F018FE0A2000F09F
:1013300083FA47F6FF7001F035FE074802F07CF8AB
:1013400001F0ACFF01F0C4FEFAE700BFF4AE0020EC
:1013500064AE002040AF00200895000872B6FEE79A
:1013600030B4064B06491D68044600230C60A8688B
:10137000022230BC194602F0C9B800BF90A4002078
:101380005CAE0020022801D80120704708B501F0AA
:10139000D7FF09230360002008BD00BF01380128E2
:1013A00010B50CD8094B1446186892B24FF0FF33B1
:1013B00001F026FA002818BF0524204610BD01F0D0
:1013C000BFFF092303604FF0FF34F6E75CAE002057
:1013D000022801D80020704708B501F0B1FF0923A9
:1013E00003604FF0FF3008BD08B501F0A9FF0923E5
:1013F00003604FF0FF3008BD08B558B9094A4FF0F7
:10140000FF331068012201F06BFA00280CBF0120A5
:10141000052008BD01F094FF092303604FF0FF3061
:1014200008BD00BF5CAE0020022808B504D84FF408
:1014300000534B60002008BD01F082FF09230360C8
:10144000002008BD82B00C4B002100915A6C42F480
:1014500080425A645A6C02F480420092009A0191D0
:101460001A6C42F080521A641B6C03F08053019393
:10147000019B02B0704700BF00380240FEE700BF8A
:10148000FEE700BFFEE700BFFEE700BFFEE700BFCC
:10149000704700BF704700BF704700BF00F0BAB987
:1014A000014801F02FB800BF64AE0020014801F0F0
:1014B00029B800BFACAE0020014801F06DBB00BFF1
:1014C000F4AE00200120704708B501F039FF162363
:1014D00003604FF0FF3008BD08B501F031FF16235F
:1014E0000360FEE710B50C4C0C4B0D492268591AED
:1014F0002AB11044884207D82060104610BD094A1E
:10150000226010448842F7D901F01AFF0C234FF0F3
:10151000FF320360104610BD60AE002000000220C4
:101520000004000078B00020704700BF00B51A48E2
:101530004FF0804202605322002387B04260952220
:10154000CDE90233CDE90433CDE90033C0E90232FD
:101550000361836100F04AFE98B94FF480530E484E
:10156000029302A900F016FF98B9002200230A484E
:101570006946CDE9002301F061F828B907B05DF8AC
:1015800004FBFFF7EBFEE8E7FFF7E8FE07B05DF8C6
:1015900004FBFFF7E3FEE8E764AE002000B51A485D
:1015A0001A4A02605322002387B042600922CDE923
:1015B0000233CDE90433CDE90033C0E902320361DF
:1015C000836100F013FE98B94FF480530E480293E4
:1015D00002A900F0DFFE98B9002200230A486946FC
:1015E000CDE9002301F02AF828B907B05DF804FB23
:1015F000FFF7B4FEE8E7FFF7B1FE07B05DF804FBC4
:10160000FFF7ACFEE8E700BFACAE002000040040EE
:1016100000B50368B3F1804F83B005D0194A9342F7
:1016200019D003B05DF804FB002203F50E330092DD
:10163000196C41F0010119641B6C03F00103009364
:101640001C201146009B00F01BF91C2003B05DF824
:1016500004EB00F053B900220B4B0192196C41F0DE
:10166000020119641B6C03F0020301931D20114653
:10167000019B00F005F91D2003B05DF804EB00F0BC
:101680003DB900BF000400400038024010B50B48CF
:101690000B4C00234FF4E1310C22C0E90041C0E9BA
:1016A0000233C0E90432C0E9063301F00BF800B997
:1016B00010BDBDE81040FFF751BE00BFF4AE0020E2
:1016C0000010014030B51D4B026889B000249A42D9
:1016D000CDE90244CDE90444069401D009B030BDFF
:1016E00003F5943300945A6C154842F010025A6482
:1016F0005A6C02F010020092009A01941A6B42F0A8
:1017000001021A631B6B03F0010301934FF4C062E3
:101710000223CDE9022302A907230322CDE90523F1
:10172000019D00F06BF922462146252000F0A8F823
:10173000252000F0E3F809B030BD00BF00100140E3
:1017400000000240DFF834D0FFF7EEFE0C480D49F0
:101750000D4A002302E0D458C4500433C4188C420C
:10176000F9D30A4A0A4C002301E013600432A24272
:10177000FBD301F0EBFDFFF7BFFD70470000022037
:101780000000002040AE00205499000840AE002028
:1017900074B00020FEE7000038B50E4A0E4B1278F8
:1017A0001B6805464FF47A70B0FBF2F0B3FBF0F023
:1017B00000F0B2F808B90F2D01D9012038BD044658
:1017C000024629464FF0FF3000F05AF8034B2046FE
:1017D0001D6038BD0400002000000020080000202B
:1017E00008B50B4B1A6842F400721A601A6842F48A
:1017F00080621A601A6842F480721A60032000F056
:101800002DF80F20FFF7C8FFFFF71CFE002008BDD2
:10181000003C0240034A044B11681B780B441360E0
:10182000704700BF3CAF002004000020014B186847
:10183000704700BF3CAF002038B50446FFF7F6FF05
:10184000631C054602D0044B1B781C44FFF7EEFFD7
:10185000401BA042FAD338BD040000200749CA68E3
:1018600003024FF6FF0003F4E0630240134343F02A
:10187000BF6343F40033CB60704700BF00ED00E06E
:101880001C4BDB68C3F3022300B5C3F1070EBEF1A6
:10189000040F03F1040C28BF4FF0040EBCF1060F37
:1018A0001BD9033B4FF0FF3C0CFA03FC22EA0C026D
:1018B0004FF0FF3C0CFA0EFC21EA0C019940002885
:1018C00041EA02010CDB00F16040090100F56140D2
:1018D000C9B280F800135DF804FB00221346E7E765
:1018E000054B00F00F0009010344C9B219765DF8F9
:1018F00004FB00BF00ED00E0FCEC00E0002808DB8A
:10190000044A4109012300F01F0003FA00F042F8E5
:101910002100704700E100E00138B0F1807F0FD274
:1019200010B44FF0E023074C58614FF0F00C84F8EE
:1019300023C00022072110469A6110BC196170472C
:101940000120704700ED00E070B50446866DFFF79A
:101950006DFF94F83530022B06D00023802284F8E6
:1019600034306265012070BD23681A6822F01602C7
:101970001A605A6922F080025A61226C054632B31D
:101980001A6822F008021A601A6822F001021A602E
:1019900005E0FFF74BFF431B052B0FD823681B689F
:1019A00013F00103F5D1E16D3F228A400121B260BD
:1019B00084F8351084F83430184670BD0320202296
:1019C0000023626584F8343084F8350070BDA26C61
:1019D000002AD5D1D8E700BF90F83530022B03D0CC
:1019E00080234365012070470268052380F8353065
:1019F000136823F001030020136070472DE9F04FB6
:101A000000220C68DFF80CA2834E85B0134689468D
:101A100005E00133102B02F1020200F08E8001215B
:101A2000994001EA040BA143F3D1D9F804C00CF0AA
:101A300003014D1E012D40F28380032940F0C28036
:101A40009140CD4307683D4029431CF4403F01606D
:101A5000DFD000210391DAF8441041F48041CAF844
:101A60004410DAF8441001F480410391039923F003
:101A7000030101F1804101F59C3103F00307D1F826
:101A800008E0BF000F25BD402EEA0505DFF88CE118
:101A9000704528D00EF5806E704500F09780DFF815
:101AA00080E1704500F09880DFF878E1704500F043
:101AB0009980DFF874E1704500F09A80DFF86CE1FE
:101AC000704500F09B80DFF868E1704500F09C8075
:101AD000DFF860E170450CBF4FF0070E4FF0080EC5
:101AE0000EFA07F73D438D60B1686FEA0B071CF4EF
:101AF000801F0CBF39404BEA0101B160F5681CF44E
:101B0000001F0CBF3D404BEA0505F56075681CF4ED
:101B1000003F0CBF3D404BEA0505756031681CF481
:101B2000803F03F101030CBF39404BEA0101102B48
:101B3000316002F102027FF472AF05B0BDE8F08FB0
:101B4000D9F80C50876805FA02F8032505FA02FE59
:101B500027EA0E0748EA0707876047686FEA0E051D
:101B600027EA0B0ECCF300179F4047EA0E074760A9
:101B7000C76807EA050ED9F80870974047EA0E07CC
:101B80000229C76001FA02F17FF45CAF4FEAD30E7D
:101B900000EB8E0E03F00708DEF820700097D9F8EE
:101BA00010704FEA880807FA08F701970F2707FA1D
:101BB00008F8009F27EA0808019F47EA0807CEF8BF
:101BC00020703FE703259540ED43D1E74FF0010E2C
:101BD0000EFA07F73D4386E74FF0020E0EFA07F7BD
:101BE0003D4380E74FF0030E0EFA07F73D437AE7D7
:101BF0004FF0040E0EFA07F73D4374E74FF0050E61
:101C00000EFA07F73D436EE74FF0060E0EFA07F7A0
:101C10003D4368E700380240003C014000000240BC
:101C200000080240000C0240001002400014024074
:101C300000180240001C024002B90904816170478B
:101C4000002800F0A2812DE9F0410368DD0782B091
:101C500004462FD59E498A6802F00C02042A00F03F
:101C6000ED808A6802F00C02082A00F0E3806368C5
:101C7000B3F5803F00F0EC80B3F5A02F00F0758144
:101C8000934D2A6822F480322A602A6822F4802246
:101C90002A60002B40F0E180FFF7C8FD064605E012
:101CA000FFF7C4FD801B642800F201812B689B03B1
:101CB000F6D423689F0728D5854A916811F00C0F48
:101CC00000F09080916801F00C01082900F08680F6
:101CD000E368002B00F00E817E4B7D4E01221A60DE
:101CE000FFF7A4FD054605E0FFF7A0FD401B022815
:101CF00000F2DD8033689807F6D53368226923F057
:101D0000F80343EAC203336023681A0751D4580723
:101D10002FD56F4A136C13F080537FD000256E4E81
:101D20003368D90540F1B380A368012B00F0C3806C
:101D3000052B00F02C81664E326F22F001023267D3
:101D4000326F22F004023267002B40F0B980FFF7B7
:101D50006DFD41F28838074605E0FFF767FDC01BBF
:101D6000404500F2A480336F9807F6D4002D40F070
:101D70000681A069C8B1564DAB6803F00C03082B6F
:101D800000F0C980534B002202281A6600F0098136
:101D9000FFF74CFD044605E0FFF748FD001B022855
:101DA00000F285802B689B01F6D4002002B0BDE8CC
:101DB000F08163690BB3474B454E0122C3F8802E77
:101DC000FFF734FD054604E0FFF730FD401B022815
:101DD0006DD8736F9B07F7D5236898E75268560252
:101DE0003FF576AF3A4A1268950744D5E268012A72
:101DF00041D0012002B0BDE8F081364A344EC2F82D
:101E0000803EFFF713FD054604E0FFF70FFD401B82
:101E100002284CD8736F9F07F7D4DDE70193136C4A
:101E200043F080531364136C03F080530193019BC0
:101E3000012574E74A6850027FF519AF244A1268F9
:101E400091037FF537AF6268002A7FF433AFD0E7A4
:101E50001F4A136843F480331360FFF7E7FC1C4EFE
:101E6000054604E0FFF7E2FC401B64281FD83368F6
:101E70009A03F7D51DE7164920690A6822F0F8028F
:101E800042EAC0020A601A077FF541AF91E7336862
:101E900043F480733360FFF7C9FC07463368DA0503
:101EA0003FF542AFFFF7C2FCC01B0228F6D9032062
:101EB00002B0BDE8F081064A136F43F001031367D7
:101EC000FFF7B4FC024F064641F288380BE000BF32
:101ED000003802400000474200700040FFF7A6FCB7
:101EE000801B4045E3D83B6F9B07F7D5002D3FF49F
:101EF00040AF44E0424A434E1360FFF797FC05466B
:101F000004E0FFF793FC401B0228D0D83368990700
:101F1000F7D42368F9E601283FF448AF6B68E2691B
:101F200003F4800191427FF464AF226A03F03F0121
:101F300091427FF45EAF616A47F6C0721A40B2EB1D
:101F4000811F7FF456AFA26A520803F44031013A70
:101F5000B1EB024F7FF44DAFE26A03F07063B3EB75
:101F6000026F14BF0120002020E7264B1A6842F4BC
:101F700080221A601A6842F480321A606DE7214AA2
:101F8000136C23F080531364F3E6012070471D4B5C
:101F90001A6F42F004021A671A6F42F001021A67C0
:101FA0008EE7FFF743FC064605E0FFF73FFC801B8A
:101FB00002283FF67CAF2B689901F6D4D4E90731AB
:101FC000626A0B4343EA8213D4E90A21520843EAC6
:101FD0000163013A0A4943EA024301226B600A663F
:101FE000FFF724FC074D044605E0FFF71FFC001B2C
:101FF00002283FF65CAF2B689A01F6D5D5E600BF04
:102000000000474200380240164908B58B6803F0CB
:102010000C03042B1BD0082B17D14A684B68496866
:1020200013F4800302F03F0213D10F48C1F388116B
:10203000A1FB0001FEF7E4F80A4B5B68C3F3014320
:1020400001335B00B0FBF3F008BD074808BD07484B
:1020500008BD0648C1F388110023A1FB0001FEF76B
:10206000CFF8E9E7003802400024F40040787D0111
:10207000002800F08780484A136803F007038B426A
:102080002DE9F0410D46044609D2CBB21370136816
:1020900003F007038B4202D00120BDE8F0812368E2
:1020A000980714D5590704D53C498A6842F4E05290
:1020B0008A601A0704D539498A6842F460428A6006
:1020C0003649A0688A6822F0F00202438A60DF077E
:1020D00021D56268012A57D0931E012B2F4B1B6814
:1020E0004DD99907D8D52D4EB36823F00303134378
:1020F000B360FFF79BFB41F28838074604E0FFF727
:1021000095FBC01B404544D8B368626803F00C03DC
:10211000B3EB820FF3D1204A136803F00703AB42FD
:1021200006D9EBB21370136803F00703AB42B3D1C7
:1021300023685A0706D51949E0688A6822F4E052F4
:1021400002438A601B0707D5144A2169936823F468
:10215000604343EAC1039360FFF756FF0F4A104CF8
:1021600092681049C2F303120346A25C0E48D340A2
:1021700000680B60FFF710FB0020BDE8F0819801BC
:10218000B1D489E701207047044B1B689E03AAD491
:1021900082E7032081E700BF003C02400038024094
:1021A0001C9500080000002008000020044B054991
:1021B0009B68054A0868C3F38223D35CD840704704
:1021C00000380240000000202C950008044B05490F
:1021D0009B68054A0868C3F34233D35CD840704714
:1021E00000380240000000202C950008002800F074
:1021F000908010B590F83D30044603F0FF02002BAC
:1022000000F0828022684449022384F83D308A42EB
:10221000136865D0B2F1804F31D0A1F57C418A427C
:102220002DD001F580618A4229D001F580618A4272
:1022300025D001F578418A4252D001F570518A4289
:1022400021D001F580618A421DD001F580618A426A
:1022500019D0A1F598318A4215D001F580618A42E2
:1022600011D001F580618A420DD0A069E16823F0A8
:102270008003034313606368D162936210E0A16836
:1022800023F070030B432069A16923F440730343D7
:1022900023F08003E0680B4361681360D0629162B1
:1022A000012353611369DB0703D5136923F001038D
:1022B0001361012384F8463084F83E3084F83F30BF
:1022C00084F8403084F8413084F8423084F8433058
:1022D00084F8443084F8453084F83D30002010BD47
:1022E000A068216923F07003034323F440730B4378
:1022F000A16923F080030B431360E368D362636832
:10230000936263691363CBE780F83C20FFF780F9A1
:1023100078E70120704700BF0000014090F83D3091
:10232000012B2FD103681949022280F83D20DA6879
:102330008B4242F00102DA6019D0B3F1804F16D01F
:10234000134A934213D002F5806293420FD002F5F4
:10235000806293420BD002F57842934207D002F597
:102360007052934203D0A2F59432934204D19A68FA
:1023700002F00702062A07D01A6842F00102002084
:102380001A6070470120704700207047000001402C
:102390000004004090F83C30012B75D0024630B468
:1023A0000223046882F83D30012082F83C00A368D3
:1023B00023F47F4323F07703A3600B68602B65D081
:1023C00024D8402B7CD04BD9502B17D14868CD68EE
:1023D000216A236A23F001032362A36921F00A0121
:1023E00023F0F003014343EA0513A3612162A368CC
:1023F00023F0700343F057030020A3600121002362
:1024000082F83D1082F83C3030BC7047B3F5805FF5
:1024100038D0B3F5005F10D1D1E90153A0682B4348
:10242000CD6820F47F4143EA05230B43A360A368F2
:1024300043F480430020A360E0E7702BDED1D1E9B4
:102440000153A0682B43CD6820F47F4143EA052364
:102450000B43A360A36843F077030020A360CDE79C
:10246000202B02D00AD9302BC8D1A16821F07001ED
:102470000B4343F007030020A360BFE733F01001D4
:10248000BCD1F2E70020B9E702207047236A486810
:10249000CD68216A21F010012162A16923F0A00317
:1024A00021F4704143EA001341EA0531A16123623E
:1024B000A36823F0700343F067030020A3609DE747
:1024C0004868CD68216A236A23F001032362A36967
:1024D00021F00A0123F0F003014343EA0513A3614D
:1024E0002162A36823F0700343F047030020A36038
:1024F00084E700BF704700BF704700BF704700BF50
:10250000704700BF036870B5DE681D69A9070446FF
:1025100001D5B20751D4690701D572073AD42B0708
:1025200001D5300724D4EA0601D5F30610D4E80714
:1025300001D5F10757D42A0601D533065BD46806C6
:1025400001D571065FD4AA0601D5B30642D470BD89
:1025500023686FF010021A6108222277DB6913F4F6
:10256000407F204663D0FFF7C7FF00232377DEE7D5
:1025700023686FF008021A6104222277DB69990749
:10258000204651D1FFF7B6FF2046FFF7B7FF0023E3
:102590002377C8E723686FF004021A6102222277CA
:1025A0009B6913F4407F20463BD1FFF7A3FF2046F1
:1025B000FFF7A4FF00232377B1E76FF002021A614F
:1025C000012202779B699B0725D0FFF795FF002327
:1025D0002377A0E723686FF0200220461A61BDE848
:1025E000704000F06BB823686FF001021A6120465A
:1025F00000F018FD9FE723686FF080021A61204603
:1026000000F05EF89BE723686FF040021A612046F5
:10261000FFF776FF97E7FFF76DFF2046FFF76EFFA6
:10262000D5E7FFF769FFC5E7FFF766FFAFE7FFF7FD
:1026300061FF2046FFF762FF97E700BF90F83C304C
:10264000012B37D00368022230B480F83D205A684D
:102650000D689C6822F070022A435A60164A934221
:102660001AD0B3F1804F17D0A2F57C42934213D019
:1026700002F5806293420FD002F5806293420BD044
:1026800002F57842934207D002F57052934203D08C
:10269000A2F59432934204D14A6824F08004144392
:1026A0009C600023012280F83D2080F83C3030BC43
:1026B000184670470220704700000140704700BF75
:1026C000704700BF002800F0938010B590F84130AB
:1026D000044603F0FF02002B00F085802368E068C9
:1026E000242284F84120DA6822F40052DA60196961
:1026F000A26821F4405101432069196102436069D5
:10270000D9680243E06921F4164121F00C0102432B
:102710000A43DA605A69A069364922F440720243DA
:102720008B425A6138D0344A934235D0FFF73EFD90
:10273000E369B3F5004F35D0636819219A00A0FB17
:1027400001019B0FFDF75CFD2C49A1FB00325209F2
:102750004FF0640C0CFB1200000132302368A1FB27
:102760000010120102EB50109860196921F4904199
:102770001961596921F02A015961D96800224FF085
:10278000200C41F40051D960626484F841C084F89F
:1027900042C01046626310BDFFF718FDE369B3F550
:1027A000004FC9D16268192192184FF000035B41B4
:1027B000A0FB0101FDF724FD104BA3FB00214FEA14
:1027C000511C642202FB1C02D2003232A3FB0232F3
:1027D000C2F342111209236801EB0C1102F4F872E2
:1027E0000A449A60C1E780F84020FEF76BFF75E766
:1027F0000120704700100140001401401F85EB517B
:102800002DE9F843044690F8410020284AD1884633
:1028100009B1174612B90120BDE8F8831D464FF0F3
:1028200000092123C4F8449084F84130FEF7FEFFEC
:10283000A368A784B3F5805FE784064635D0E38CB0
:102840009BB2002B4AD023686A1C1AD11A6817065B
:10285000FCD5B8F1000F20D018F8012B5A60E28C9B
:10286000013A92B2E284E28C92B2002AECD1691C65
:1028700027D11A685206FCD5202384F84130002065
:10288000CAE71A681006E4D4FEF7D0FF801B854221
:1028900011D385B12368DA68D6E739F8022BC2F381
:1028A0000802DBE70220BDE8F8832369002BC6D1CC
:1028B000C1469846C3E7202384F841300320BDE891
:1028C000F8831B685B06D7D4FEF7B0FF831B9D42DD
:1028D000F1D3002DEFD02368DA68C8E72368C6E794
:1028E0002DE9F043044690F84200202883B040F0E0
:1028F0009E80884609B116461AB9012003B0BDE88A
:10290000F0834FF000091F462223C4F8449084F856
:102910004230C4F83090FEF789FFA368A685B3F56E
:10292000805FE685054600F086804E46E38D9BB2CB
:10293000EBB12368791C21D11A689206FCD5B8F155
:10294000000F6ED0A268B2F5805F04D0002A64D177
:102950002269002A61D15B68DBB208F8013BE28D95
:10296000013A92B2E285E38D9BB2002BE1D12023A4
:10297000002084F8423003B0BDE8F0831A6812F0FA
:102980002009DCD1FEF752FF401B87423ED3002FC7
:102990003CD02368DA6852071946CBD51A6810076D
:1029A000C8D5CDF804901A6801925A680192019A2C
:1029B00003F10C0252E8002F22F490720C3343E82A
:1029C000002058B101F10C0353E8003F23F4907349
:1029D00001F10C0040E80032002AF3D101F11403A8
:1029E00053E8003F23F0010301F1140040E80032F6
:1029F000002AF3D1236B012B24D0002320210822AD
:102A000084F8421084F8403023636264202303205A
:102A100084F8423003B0BDE8F0835B6803F07F03C5
:102A20009BE75B68C3F3080326F8023B97E70220A5
:102A300003B0BDE8F0832369002B7FF476AF4646F0
:102A4000984673E701F10C0353E8003F23F01003AD
:102A500001F10C0040E80032002AF3D1CDE700BFBD
:102A600090F84230202B19D101B10AB901207047EA
:102A700000230363C2854364036981622221828546
:102A800080F8421063B903685A6942F001025A6142
:102A9000DA6842F020020020DA60704702207047B6
:102AA0000368DA6842F48072DA60EDE7704700BFCD
:102AB000704700BF08B5806B0023C385C384FFF750
:102AC000F7FF08BD704700BF8368B3F5805F45D04E
:102AD000826A002B3AD003685B6803F07F031370AF
:102AE000836A01338362C38D013B9BB2C385002B94
:102AF00033D10268D16821F0200100B5D160D168DE
:102B000021F48071D16051694FF0200C21F0010156
:102B1000516180F842C04363016B012983B028D121
:102B2000036302F10C0353E8003F23F0100302F1AA
:102B30000C0C4CE800310029F3D11368DB0622D4D9
:102B4000818DFFF7BFFF03B05DF804FB0369002B25
:102B5000C1D103685B681370C2E7704703696BB942
:102B60000268836A5268C2F3080223F8022B836268
:102B7000B9E700F06FFA03B05DF804FB0368826AFE
:102B80005B681370ACE700230193136801935368EB
:102B90000193019BD4E700BF30B503681A68D96878
:102BA0005D6912F00F0F83B0044670D1950602D50F
:102BB0008D0600F1B380206B01280BD0100602D5E2
:102BC0000D0600F1B580500602D54A0600F1CF800F
:102BD00003B030BDD506F1D5C806EFD5002201926D
:102BE0001A6801925A680192019A5A69550640F191
:102BF0001881E06B0268526892B2002AE8D0A18D79
:102C00009142E5D9E285C269B2F5807F36D003F101
:102C10000C0252E8002F22F4807203F10C0545E803
:102C200000210029F3D103F1140252E8002F22F011
:102C3000010203F1140545E800210029F3D103F155
:102C4000140252E8002F22F0400203F1140545E877
:102C500000210029F3D1202284F84220216303F1CE
:102C60000C0252E8002F22F0100203F10C0545E897
:102C700000210029F3D1FEF767FEA18D02236363D3
:102C8000E38DC91A204689B2FFF71CFFA0E705F0C3
:102C9000010501F4907028438DD0D00705D5C805F3
:102CA00003D5606C40F001006064500731D54DB130
:102CB000606C40F002006064900703D5606C40F0E7
:102CC00004006064100707D501F02000284303D0FA
:102CD000606C40F008006064606C00283FF478AFDE
:102CE000900609D5890607D594F84220222A03D1F7
:102CF0002046FFF7E9FE23685A69656C02F040023E
:102D000005F0080515433DD12046FFF7D1FE656467
:102D10005EE79007D6D5002DD0D1D3E790F84230AA
:102D2000222B7FF455AF03B0BDE83040FFF7CCBE97
:102D300094F84120212A7FF44BAFA268B2F5805F5E
:102D400000F0AA80226A511C216212785A60E28C3B
:102D5000013A92B2E284002A7FF43AAFDA6822F0B4
:102D60008002DA60DA6842F04002DA6030E7DA685E
:102D7000202122F04002DA60204684F84110FFF75B
:102D800095FE25E703F10C0252E8002F22F4907221
:102D900003F10C0040E800210029F3D103F11402F3
:102DA00052E8002F22F0010203F1140040E8002154
:102DB0000029F3D1226B012A22D00022202184F89D
:102DC000421022635A69520627D503F1140252E8D1
:102DD000002F22F0400203F1140040E800210029F6
:102DE000F3D1E06BC8B1324B0365FEF7F5FD002867
:102DF0003FF4EEAEE06B036D03B0BDE83040184722
:102E000003F10C0252E8002F22F0100203F10C0033
:102E100040E800210029F3D1CFE72046FFF748FE24
:102E2000D6E6E18DE28D92B289B2002A3FF4D0AEAF
:102E3000A28D511A89B200293FF4CAAE03F10C02E7
:102E400052E8002F22F4907203F10C0545E80020AF
:102E50000028F3D103F1140252E8002F22F00102FE
:102E600003F1140545E800200028F3D1202284F85E
:102E70004220206303F10C0252E8002F22F01002DE
:102E800003F10C0545E800200028F3D10223636319
:102E90002046FFF717FE9BE62269002A7FF452AF17
:102EA000226A32F8021BC1F30801596022624EE720
:102EB000B52A0008F8B5012205460C462648264FDB
:102EC0004FF40061FEF7B8FE234800224FF4006182
:102ED000FEF7B2FE204800224FF48051FEF7ACFE10
:102EE00008262B064FF000024FF4807148BF0122E4
:102EF0003846FEF7A1FE01224FF480513846FEF716
:102F00009BFE013E00224FF480513846FEF794FEAE
:102F10006D0016F0FF06EDB2E3D10F4E102523042D
:102F20004FF000024FF4807148BF01223046FEF797
:102F300083FE01224FF480513046FEF77DFE013DB5
:102F400000224FF480513046FEF776FE640015F003
:102F5000FF05A4B2E3D1F8BD0008024010B5104C43
:102F6000002220464FF48061FEF766FE01222046D3
:102F70004FF40071FEF760FEFEF7D0F80121282023
:102F8000FFF798FF03212020FFF794FF012138204D
:102F9000FFF790FFBDE8104000210220FFF78ABF35
:102FA0000008024010B5094C01461820FFF782FFC7
:102FB000204600224FF40071FEF73EFE204601221B
:102FC000BDE810404FF40071FEF736BE0008024025
:102FD00000F51C500D49103010B5000481FB003184
:102FE000C0170B4CC0EB613189B21820FFF762FFAC
:102FF000204600224FF40071FEF71EFE20460122FB
:10300000BDE810404FF40071FEF716BEAD8BDB68D3
:103010000008024002464FF480610148FEF70CBEF2
:10302000001402400368B3F1804F00D0704700F0F5
:10303000B1B800BF064A08B5431E1046D360FFF77B
:10304000D5F800B908BDBDE80840FEF787B900BF54
:1030500064AE00201A4B834200D07047194AB2F97F
:1030600000101388002907DB17495804097808D590
:103070000A291AD000231380134911480122FFF7AF
:10308000EFBC0D2917D0C3F30D00013310B49BB270
:103090000E4C1380C72B215401D9002313800A49F9
:1030A000074810BC0122FFF7DBBC6FEA43436FEA1D
:1030B00053431380E0E743F480431380DCE700BF11
:1030C000F4AE00200CB0002040AF002044AF002040
:1030D00008B50B4B0B489B68F02B08D0002204214D
:1030E000FEF7AAFDBDE808400120FFF793BF0122CB
:1030F0000421FEF7A1FDBDE808400020FFF78ABFCC
:1031000010B0002000000240F8B51C4C237943B1F8
:103110001B4D2B68012B19D0022B0CD013B10023AF
:103120002371F8BD174B1B6850F82300FFF750FFC1
:1031300001232B60F8BD134E13480F46FFF748FFDD
:103140003368BB4213D000232B60F8BD0020FFF78B
:103150003FFF0C490D480B680D4A013300FB032269
:10316000B2F1553F0B60EED202232B60F8BD002078
:10317000FFF72EFF002323713360E4E710B0002037
:1031800024B000201CB0002018FCFFFFABAAAAAAA4
:10319000AAAAAA2A38B5364CA368362B09DC2F2BED
:1031A00039DD313B052B5CD8DFE803F01920272EF1
:1031B0000B12F02B32D0F12B2DD12379002B43D1E0
:1031C00038BDBDE838402B4840F2DC51FFF79CBFCA
:1031D000BDE83840284840F2DC51FFF795BFBDE814
:1031E0003840264840F2DC51FFF78EBFBDE838403A
:1031F000234840F2DC51FFF787BFBDE83840214843
:1032000040F2DC51FFF780BFBDE838401E4840F275
:10321000DC51FFF779BF0023237138BD2379002BE0
:10322000CED01A4D1A4B2A6853F82200FFF7D0FE71
:103230002B680133152B2B60C2D10020FFF7C8FE8D
:10324000002323712B6038BD104D124B2A6853F8B0
:103250002200FFF7BDFE2B680133082B2B60ECD05A
:1032600038BDBDE838400C482121FFF74DBF00BFF5
:1032700010B000205C750020CC8C00209C17002032
:103280000C2F00207C460020EC5D002020B00020A8
:103290003CA400200C0000202C0000202DE9F0416F
:1032A0001D4EB6F900203388002A0ADB1B4C237818
:1032B000FE2B04D11A4A0121FF2311712370BDE8AE
:1032C000F081184F184C194DDAB200233A70237070
:1032D00062B1DFF85C80E95C404600F0ADF823782D
:1032E0003A780133DBB29A422370F4D8114800F0E7
:1032F00005F9114B1A6813685B06FCD5074C2A7850
:10330000074B22706A789A600C4BA8781870FFF708
:1033100091FE00233380CAE70CB000202BB00020C0
:1033200010B0002028B000202AB0002044AF0020B8
:10333000349500083C950008F4AE002029B0002028
:10334000014B1868704700BF90A4002070B50D4E67
:103350000D4D761BB61006D0002455F8043B013401
:103360009847A642F9D1094E094D761B06F0C0F8E0
:10337000B61006D0002455F8043B01349847A64205
:10338000F9D170BD48990008489900085099000883
:1033900048990008830730B548D0541E002A3FD012
:1033A000CAB2034601E0013C3AD303F8012B9D0762
:1033B000F9D1032C2DD9CDB245EA05250F2C45EACC
:1033C000054536D9A4F1100222F00F0C03F1200EAE
:1033D000E6444FEA121C03F1100242E9045542E9A7
:1033E000025510327245F8D10CF1010214F00C0FA5
:1033F00003EB021204F00F0C13D0ACF1040323F022
:1034000003030433134442F8045B9342FBD10CF0F2
:1034100003042CB1CAB21C4403F8012B9C42FBD11B
:1034200030BD64461346002CF4D1F9E70346144638
:10343000BFE71A46A446E0E70FB400B5074983B0DA
:1034400004AB086853F8042B8168019300F036F947
:1034500003B05DF804EB04B0704700BF90A40020F7
:1034600070B5054688B008460C46FDF769F8224E4F
:10347000AA6B059001214318CDE9066104A8022139
:1034800004940393AC680190029122B3636E13F02D
:10349000010FB4F90C309AB201D1980525D59104E9
:1034A00006D4626E43F4005322F40052A381626694
:1034B000284601AA214603F0DBF9636E002814BFF9
:1034C0004FF0FF350A25DA0702D4A3899B0506D5FC
:1034D000284608B070BD284602F0CCFFD6E7A06DA4
:1034E00003F068FB284608B070BDA06D03F060FBD8
:1034F000B4F90C309AB2D2E744950008024B014669
:103500001868FFF7ADBF00BF90A400202DE9F0437D
:10351000694CD4F8008083B004460E4617461D4619
:10352000B8F1000F03D0D8F83830002B77D0022F35
:1035300005D0012F00F2AC80002DC0F2A980636E8F
:10354000DA0752D52146404602F060FF216B41B1B7
:1035500004F14003994202D0404603F083F800236F
:103560002363B4F90CC000231CF0800FA3616360D7
:1035700064D12CF44A6C2CF0030C022FA4F80CC07C
:103580006AD001AB6A462146404603F085FBA38919
:103590001843A081002D2FD0002E2ED0D8F838301F
:1035A000002B38D0009B2660AB42B4F90C301CBF16
:1035B00043F40063A381012F04BF43F00103A381FF
:1035C0009AB213F00803C4E904652CD0D1075DD585
:1035D0006D42A561656E002315F00105A36027D03B
:1035E0000025284603B0BDE8F083A3899B05A9D434
:1035F000A06D03F0DDFAA5E7009D284603F07CFBF3
:103600000646002847D0A38943F08003A381D8F859
:103610003830002BC6D1404602F02CFFC2E74046AE
:1036200002F028FF83E7A360656E15F00105D7D18E
:10363000930524D5284603B0BDE8F08321694046B0
:1036400003F010F8B4F90CC02CF44A6C2CF0030C05
:10365000022FA4F80CC094D10025002204F14303EA
:10366000A2600122C4E904322360636E4CF0020CB4
:10367000D807A4F80CC0DDD41CF4007FDAD1A06D0B
:1036800003F098FA284603B0BDE8F083A560CBE7C5
:103690004FF0FF35CEE7DDF80090A94504D048464D
:1036A00003F02AFB064620B9B4F90CC04FF0FF35F1
:1036B000D3E74D46A7E700BF90A400202DE9F04FC7
:1036C000D5B01C46079191460546099003F068FA6B
:1036D0000268179210460E94FCF732FF16901DB147
:1036E000AB6B002B00F02A82079A536EDD0740F186
:1036F0003881B2F90C2091B28F0409D4079B42F4AF
:1037000000529A8191B21A465B6E23F400535366BD
:103710000E0740F1CB80079B1B69002B00F0C68091
:1037200001F01A030A2B00F0CF8000242BAB4D468A
:10373000CDE92944CDE91944CDE91B4412942893DD
:103740009846189400230B940024CDE914342B7868
:10375000002B00F09D81AA4604E01AF8013F002BDF
:1037600000F0C780252BF8D1BAEB050640F0C580E4
:103770009AF80030002B00F08B8100234FF0FF32CD
:103780009AF801608DF883300A930AF1010A0892D1
:103790001F462B244FF020090AF1010AA6F120034D
:1037A0005A2B00F2ED80DFE813F0EB02EB00EB00A8
:1037B000E602EB00EB00EB006A00EB00EB005C02C2
:1037C0008002EB0067028A02EB0085025B005B006F
:1037D0005B005B005B005B005B005B005B00EB0081
:1037E000EB00EB00EB00EB00EB00EB007A01EB00F1
:1037F000F801D2017A017A017A01EB00EB00EB00CB
:10380000EB00E102EB00EB002D02EB00EB00EB0024
:103810000202EB00A402EB00EB008307EB00EB00DD
:10382000EB00EB00EB00EB00EB00EB007A01EB00B0
:10383000F801D4017A017A017A01C702D401CD01DD
:10384000EB00D402EB006C022F02B502CD01EB00BD
:1038500002027E008007EB00EB006107EB007E00B8
:10386000A6F1300300221AF8016B02EB820203EB8F
:103870004202A6F13003092BF5D90A928EE7DDF852
:1038800024B0584603F08CF943681B931846FCF7A4
:1038900057FE1C900646584603F082F98368199338
:1038A000002E40F0CD869AF8006075E7079D0998D4
:1038B000294601F0ADFC002841F01C83A98901F0E4
:1038C0001A030A2B7FF431AF079AB2F90E30002B9E
:1038D000FFF62BAF536ED80702D4890541F13B8127
:1038E0000799099823464A4655B0BDE8F04F01F0C4
:1038F0004FBCBAEB050600F0CB802A9B33442A93D9
:10390000299B0133072BC8E90056299305DC08F1F0
:1039100008080B9B33440B932AE70799099828AAB8
:1039200004F0BEFB80B90DF1AC08F2E707990998E5
:1039300028AA04F0B5FB002800F09B800D9B1BB16A
:103940000998194602F08EFE079A536ED90740F186
:10395000EA8093895B0601F1D9820B9855B0BDE8E6
:10396000F08F079BB3F90C20900591B23FF5C4AEE0
:103970001D46986D03F01CF9B5F90C2091B2BBE619
:10398000002E00F0858000228DF8EC608DF88320F9
:103990000123CDE90C32069308920F9213921092F4
:1039A0003BAD17F0020302D006990231069117F0E1
:1039B000840B07D10A990698A1EB0009B9F1000F11
:1039C00000F370832A9C8AB1299A0DF18301013298
:1039D0000134C8F80010072A4FF001012A942992F7
:1039E000C8F8041000F3B68308F1080883B1299BD6
:1039F00021AA01330234C8F80020072B4FF002023D
:103A00002A942993C8F8042000F3B28308F1080827
:103A1000BBF1800F00F06982089B0C9AA3EB020BAC
:103A2000BBF1000F00F3AA82FB0500F100820C9BA2
:103A3000C8F804301C44299BC8F800500133072BF8
:103A40002A94299300F3228308F10808780705D502
:103A50000A9B069A9D1A002D00F39683DDE90A233E
:103A600006998A42ACBF9B185B180B93002C7FF41D
:103A70005DAF002329930D9B1BB10D99099802F0AE
:103A8000F1FD0DF1AC0855462B78002B7FF463AEA9
:103A90002A9B002B41F0D3810023299354E70E9BEE
:103AA000073323F00702F2E80234CDE91434DDE9EC
:103AB000143424F000440E92994618462146B54B22
:103AC0004FF0FF32FDF7ECFA002840F0EF84B14BE5
:103AD000484621464FF0FF32FDF7C4FA002840F077
:103AE000E584DDE9140100220023FDF7B1FA002886
:103AF00040F067879DF88320A74DA84B27F08007EB
:103B00000321472EC8BF1D4600230D9306910C913B
:103B100008930F9313931093002A3FF442AF069B30
:103B2000013306933DE7079B9B899A053FF512AF4A
:103B3000079CA06D03F03EF8A3890BE7099802F0FB
:103B400099FCD1E59AF8006047F0200724E647F099
:103B50001007BA060E9B40F13B84073323F007039E
:103B60001A465B6852F8084B0E929946002BC0F239
:103B70004C84089B013300F0D88254EA090327F0F3
:103B8000800B40F0D382089B002B40F0D4825F462C
:103B9000002308930C9354AD1DE10E9B002253F8B3
:103BA000041B8DF883208DF8EC100E93F0E60E9C2C
:103BB000089B54F8045B4FF000098DF88390002DAA
:103BC00000F093855A1C00F051861A464946284653
:103BD000FCF726FD0D90002801F00E810D9BCDF81D
:103BE00020905B1B0C930E9423EAE3739DF88320D3
:103BF0000693CDF83490CDF83C90CDF84C90CDF8AC
:103C0000409089E747F0100717F0200900F0D283B1
:103C10000E9B073323F00703D3F8049053F8084BA7
:103C20000E9327F4806B002300228DF88320089ADE
:103C3000511C00F0B88054EA09012BF0800740F0D5
:103C4000B180002A40F0F685002BA1D11BF00103C2
:103C50000C9300F0148430238DF84F310DF24F1582
:103C6000B9E00E9B53F8042B0A92002A80F2DA8303
:103C70000A9A0E9352420A929AF8006047F004079B
:103C80008AE5BD0600F1D184FC0600F1D8857806EE
:103C900000F1A586B90540F1D2850E9B0B9953F82A
:103CA000042B0E9311705546EEE69AF800608DF8DD
:103CB000834071E59AF8006047F080076CE5524652
:103CC00012F8016B2A2E01F03F82A6F13003092B76
:103CD000924698BF002201F2BC801AF8016B02EBF9
:103CE000820203EB4202A6F13003092BF5D90892B8
:103CF00054E547F0100B1BF0200900F076830E9B73
:103D0000073323F00703D3F8049053F8084B0E93BE
:103D1000012389E70E9B53F8044B0E93302378263A
:103D20008DF884301E4B189347F0020B8DF8856098
:103D30004FF00009022377E79AF80060682E03BF6E
:103D40009AF8016047F400770AF1010A47F040074A
:103D500022E59AF800606C2E03BF9AF8016047F0E4
:103D600020070AF1010A47F0100715E59AF80060EC
:103D700047F0080710E59AF8006047F001070BE5E7
:103D80009DF88330002B7FF48EAD9AF800608DF89B
:103D9000839001E5FFFFEF7F489500084C950008F0
:103DA00058950008BB46012B00F0C081022B54AD92
:103DB00020D1189A04F00F032409D35C05F8013DC3
:103DC00044EA09744FEA191954EA0903F2D154ABD1
:103DD0005B1B5F460C9308990C989DF883208142E9
:103DE0004FF00003B8BF01460D9306910F93139354
:103DF000109391E604F00703E40844EA49744FEA9B
:103E0000D909303354EA09012A4605F8013DF1D1B8
:103E10001BF0010FDBD0302BD9D03023023A05F84C
:103E2000013C54AB9B1A5F460C931546D3E7652EB5
:103E300040F3E680DDE9140100220023FDF7FEF8DF
:103E4000002800F0DC81299BBF4AC8F8002001331C
:103E500001340122072B2A942993C8F8042000F387
:103E6000CC8408F10808229B129A934280F2D682F1
:103E7000169B179A1C44C8E90023299B2A940133F6
:103E8000072B299300F3248408F10808129B5D1E78
:103E9000002D7FF7DBAD102D299BDFF8B09240F3AA
:103EA000BD8449462246B946DDF824B0079C102659
:103EB0000F4605E008F10808103D102D40F3AA84D4
:103EC00001331032072BC8E90076CDE92932F1DD44
:103ED00028AA2146584604F0E3F800287FF42EADC6
:103EE000DDE929320DF1AC08E6E70A9B069AA3EB5F
:103EF000020BBBF1000F7FF78FADBBF1100F299ABA
:103F0000DFF848922CDD1D9621464E46079CDDF8D1
:103F10002490102306E0ABF1100BBBF1100F08F159
:103F200008081ADD01321031072AC8E90063CDE91B
:103F30002921F0DD28AA214648460DF1AC0804F0FD
:103F4000AFF800287FF4FAACABF1100BBBF1100F07
:103F5000DDE929214FF01003E4DCB1461D9E0C463B
:103F600001325C44072ACDE92924C8F80090C8F83A
:103F700004B000F3A08308F108084DE5BBF1100F71
:103F8000299ADFF8C8912DDD41462046A8464C46C7
:103F9000079DDDF82490102306E0ABF1100BBBF178
:103FA000100F01F1080119DD01321030072AC1E9B3
:103FB0000043CDE92920F0DD28AA2946484604F02F
:103FC0006FF800287FF4BAACABF1100BBBF1100F07
:103FD000DDE929202BA94FF01003E5DC4546A14679
:103FE0008846044601325C44072ACDE92924C8F8F2
:103FF0000090C8F804B000F3D08108F1080813E578
:10400000129B012B40F38081299EC8F80050013695
:1040100001340123072E2A942996C8F8043000F3AE
:104020007C8308F10808169B179A01361C44072E5A
:10403000C8E90023CDE9296400F37C8308F108086E
:10404000DDE9140100220023FCF7F8FF002840F00E
:104050007881129B0136013B01351C44072EC8F8BC
:1040600000502996C8F804302A9400F35D8108F1C5
:1040700008081A9BC8F8043001361C44072E24ABEC
:10408000CDE92964C8F800307FF7DEAC07990998BC
:1040900028AA04F005F800287FF450AC2A9C0DF102
:1040A000AC08D3E4B9F1100FDDE929212BDDCDE90E
:1040B0001D3B1F96DDF824B04E461024A946079DEF
:1040C00004E0103E102E08F1080817DD0132204BE5
:1040D0001031072AC8E90034CDE92921F1DD28AAE9
:1040E000294658460DF1AC0803F0DAFF00287FF4AA
:1040F00025AC103E102EDDE92921E7DCDDE91D3B72
:104100004D46B1461F9EC8F80490013209EB0104E8
:10411000072A0F49C8F80010CDE9292400F351837C
:104120009DF8832008F108084DE4BB460A2C79F17C
:10413000000380F00C83303401238DF84F415F463B
:104140000C930DF24F1546E6889500089C950008E3
:104150008C950008079909981D9328AA03F0A0FFE1
:1041600000287FF4EBAB2A9C1D9B0DF1AC083DE4CD
:104170000799099828AA03F093FF00287FF4DEAB83
:104180002A9C0DF1AC0843E4102D299B21DD099FE9
:10419000DDF81C90102604E0103D102D08F10808F1
:1041A00017DD0133BB4A1034072BC8E90026CDE9DF
:1041B0002934F1DD28AA494638460DF1AC0803F050
:1041C0006FFF00287FF4BAAB103D102DDDE92934D4
:1041D000E7DC0133AF4AC8F804502C44072BCDE983
:1041E0002934C8F800207FF739AC0799099828AA24
:1041F00003F056FF00287FF4A1AB2A9C2EE42299FD
:10420000002940F31481DDF84090129B9945A8BF26
:104210009946B9F1000F0BDD299B01334C44072B64
:10422000C8E900592A94299300F39A8508F10808EF
:10423000109EB9F1000FA8BFA6EB0906002E00F3EF
:104240004683DDF840B07905AB4400F1CE84229B73
:10425000129A934202DBFA0740F1B883169A179933
:104260001444C8E90012299A2A940132072A299293
:1042700000F3838508F10808129AAE18A6EB0B0626
:10428000D51AAE42A8BF2E46002E0DDD299BC8F8D8
:1042900000B001333444072BC8F804602A942993F2
:1042A00000F3F18508F10808002EA8BFAD1B002D12
:1042B0007FF7CCAB102D299BDFF8DC9140F3AE8269
:1042C00049462246B946DDF824B0079C10260F4621
:1042D00005E008F10808103D102D40F39B820133E2
:1042E0001032072BC8E90076CDE92932F1DD28AA82
:1042F0002146584603F0D4FE00287FF41FABDDE9C9
:1043000029320DF1AC08E6E7FE073FF57DAE299EA8
:10431000C8F80050013601340123072E2A9429964B
:10432000C8F804307FF7A3AE0799099828AA03F0CC
:10433000B7FE00287FF402ABDDE929640DF1AC087B
:1043400097E6129B5D1E002D7FF793AE102DDFF8D0
:10435000489140F37F8222460897099C079F4FF0BF
:10436000100B05E008F10808103D102D40F3708295
:1043700001361032072EC8E9009BCDE92962F1DD34
:1043800028AA3946204603F08BFE00287FF4D6AADF
:10439000DDE929620DF1AC08E6E70799099828AA3A
:1043A00003F07EFE00287FF4C9AA2A9C0DF1AC0818
:1043B000FFF73ABB17F0100372D117F0400200F07C
:1043C000BD820E9A52F8044B0E929946A4B228E48C
:1043D00053F8044B0E93FB0656D47D0651D544F397
:1043E000C0394B4624B2FFF7C1BB1BF0100340F0AD
:1043F00036811BF0400200F092820E9A52F8044B74
:104400000E929946A4B201230EE42D2364428DF846
:10441000833069EB4909BB46012308E4F8077FF5BF
:1044200015AB25E59AF800600E93FFF7B5B9299B07
:104430001A4AC8F80020013301340122072B2A94BC
:104440002993C8F8042000F3708408F108080029B3
:1044500040F01E82129A07F0010313433FF4F6AABC
:10446000169B1799E218C8E90013299B2A92013379
:10447000072B299300F3618308F1080819E254AD72
:10448000A9E4B80500F1B4824FEAE4794B46FFF79E
:104490006DBB00BF8C9500089C95000888950008AE
:1044A0000E9B53F8044B0E93FFF7BBBBDDE91401E1
:1044B00002460B46FCF7F4FD002840F0A085612E73
:1044C00000F05085412E00F09982089B013326F0C0
:1044D0002003069300F08F85472B00F07985DDE9F6
:1044E000141247F480730F931346002BC0F2ED852E
:1044F0000C9300231D938B460D93069B462B00F0D7
:104500004A84452B00F04F850899019126A9049112
:1045100023A9039122A9029102210C9B09980091E1
:104520005A4600F081FF069B472B054640F01C864B
:1045300017F0010FB9460F9F40F0D984269B5B1BF3
:104540001293069B472B00F01883069B462B00F026
:104550005F84229B1093109B069A013B412A229371
:1045600000F0AA85F2B20021002BB8BF109B8DF895
:104570009020BABFC3F101032D222B22092B8DF805
:10458000912040F363850DF19F04BD4F22461046F4
:1045900087FB0321DA17C2EBA10202EB8201A3EB36
:1045A0004101303100F8011C19466329134600F11E
:1045B000FF32ECDC3033D9B2831E9C4202F8011C7E
:1045C00040F2CE8513460DF1920201E013F8011B73
:1045D00002F8011B9C42F9D10DF1A1030DF19202E9
:1045E0001B1A134424AA9B1A1A93129B1A9A012B82
:1045F0001A440C9240F372850C9B169A13440C9348
:104600000C9A002329F4806722EAE27247F480774B
:104610000F930692139310931D9B002B40F0DE82A4
:104620009DF883200893FFF777BA0E9B0B9853F8F9
:10463000041B0E93C217C1E900025546FFF724BAC6
:10464000199B002B3FF42FA9199B1B78002B3FF4DB
:104650002AA99AF8006047F48067FFF79DB80E9B7F
:1046600053F8044B0E930123FFF7DEBA854B1893E2
:1046700017F0200949D00E9B073323F00703D3F826
:10468000049053F8084B0E93F80709D554EA090330
:1046900006D030238DF8856047F002078DF884300E
:1046A00027F4806B0223FFF7BFBABB46FFF723BB9B
:1046B000754B1893DCE70799099828AA03F0F0FCDA
:1046C00000287FF43BA92A9C0DF1AC08FFF7A4B9A0
:1046D0000799099828AA03F0E3FC00287FF42EA983
:1046E0002A9C0DF1AC08FFF7D1BB062B294628BF49
:1046F000062308950D952A460693644D0E940C9357
:104700000F9113911091FFF707BA17F0100369D0BA
:104710000E9B53F8044B0E93B6E70799099828AA05
:1047200003F0BEFC00287FF409A9DDE929640DF13E
:10473000AC0878E40799099828AA03F0B1FC00288E
:104740007FF4FCA8DDE929640DF1AC0878E40BF4F2
:1047500080630022CDE90CA80696DDF8648054AF92
:1047600016469A460CE00023204649460A22FBF7EB
:1047700047FD0A2C79F100031BD3044689462F46D6
:1047800020460A2200234946FBF73AFD30327D1EBF
:10479000013607F8012CBAF1000FE4D098F8003088
:1047A0009E42E0D1FF2EDED00A2C79F1000380F08A
:1047B000F480CDF864801296DDE90CA8069EFFF720
:1047C00006BB079909981D9328AA03F069FC0028E5
:1047D0007FF4B4A89DF883202A9C1D9B0DF1AC08A2
:1047E000FFF7F1B817F0400200F0B6800E9A52F8C9
:1047F000044B0E929946A4B246E70799099828AA55
:1048000003F04EFC00287FF499A82A9C0DF1AC0817
:10481000FFF729BB14463A464F46914601332C44D4
:10482000072BC8F80090C8F80450CDE929347FF769
:104830000BA92BE4012BBB467FF4B8AA7BE40E9BAB
:104840000B9953F8042B554611600E93FFF71CB9D2
:10485000089F144601362C44072ECDE92964C8F878
:104860000090C8F804507FF702AC5DE52846CDF80B
:1048700020900E94FBF764FE03460C90FFF7B4B94A
:1048800067666666589500086C9500088095000874
:10489000169B1798E218C8E90003299B2A92013356
:1048A000072B299300F3498108F108080029C0F279
:1048B000FA821299C8F8005001338C18072BCDE901
:1048C0002934C8F804107FF7BFA8FFF7DFBB102E0C
:1048D000299BDFF8C09252DD484642462146A84651
:1048E000B946099C079D4FF0100B074603E00832BC
:1048F000103E102E3DDD01331031072BC2E9007B45
:10490000CDE92931F3DD28AA2946204603F0C8FB6A
:1049100000287FF413A8DDE929312BAAE8E70E9BD4
:104920001BF4007914BF53F8044B53F8044B0E9357
:104930001CBF9146E4B20123FFF776B90E9B17F432
:10494000007914BF53F8044B53F8044B0E931CBF6B
:104950009146E4B2FFF765B90E9B17F4007914BFD6
:1049600053F8044B53F8044B0E931CBF9146E4B22A
:104970008AE6454690463A460C464F4691460133F4
:104980003444072BCDE92934C8F80090C8F80460F6
:1049900000F3E68008F1080853E41C9B1B99ED1A0C
:1049A0001A46284603F00EFB98F801300BB108F1C7
:1049B0000108204649460A2200230026FBF720FC76
:1049C000DBE62D228DF88320FFF796B8129AAE18F9
:1049D000A6EB0B06D51AAE42A8BF2E4664E40E9B8A
:1049E0000B9953F8042B0E9311805546FFF74CB8E2
:1049F00044F3C0194B4664B2FFF7B8B830238DF8C2
:104A0000843058238DF88530089B632B47F00204CF
:104A100000F39B8200230D933BADDDE9141247F4B4
:104A200081730F931346002B2746C0F220820C930C
:104A300026F02003069300238B461D93612E00F081
:104A4000ED82412E7FF459AD22AA0C99584603F00D
:104A500029FA00224FF07F53FCF788F802460B46F4
:104A6000CDE9102300220023FCF7E8FA08B1012366
:104A70002293494B0C93089BCDE912A6CDE91E78F1
:104A8000DDF830A0DDE9106703F1FF39AB46109582
:104A900006E00022002309F1FF39FCF7CFFAE8B95C
:104AA0003E4B002230463946FCF760F80F4606467A
:104AB000FCF70CFB0446FBF7EFFF0B4602463946BA
:104AC0003046FBF79BFE1AF80430B9F1FF3FD84699
:104AD0004D460BF8013B06460F46DAD130463946C3
:104AE0002F4BDDF848A0139ECDF848800022A94640
:104AF000DDF87C80109D1E9FCDE91001FCF7C6FA01
:104B0000002840F03482DDE91001254B0022FCF73B
:104B100095FA10B1E10700F12A824B46002B06DB23
:104B200001335B4430220BF8012B5B45FBD1ABEB2F
:104B30000503B94612930F9F03E50799099828AA20
:104B400003F0AEFA00287EF4F9AEDDE929322299AD
:104B50000DF1AC08AAE6906D02F02CF8FEF7C0BE8D
:104B60000799099828AA03F09BFA00287EF4E6AE7C
:104B70002A9C0DF1AC08FFF764BB229B1093DA1C52
:104B800002DB089A93420DDD023E26F020030693D5
:104B9000E1E400BF9C9500086C95000800003040DF
:104BA0000000E03F109B129A9342C0F2568119F028
:104BB000010F00F08782169A13440C9319F4806F4A
:104BC00003D0109B002B00F350820C9B23EAE3736D
:104BD0000693672600230F9313931DE52D220023D0
:104BE0008DF883200893FEF79ABF129BCDF830A072
:104BF0004246DDF84C801097EB1808935E46199FEB
:104C0000DDF87090DDF824A0DDF81CB00F9B139543
:104C10002146B8F1000F2ED0002B6BD1013F08F1D7
:104C2000FF381B9BC2E90039299B01334944072BFC
:104C30002A91299362DC0832089B38789B1B8342B7
:104C4000A8BF0346002B1C460ADD299801301944F1
:104C50000728C2E900632A9129905ADC3878083283
:104C6000002CACBF051B0546002D15DC06440F9B30
:104C7000B8F1000FD0D1002B3CD1DDE91235EB1893
:104C80009E421997B346DDF830A0109F90460C461F
:104C900028BF9B46FFF7DBBA102D29981DDD102495
:104CA00004E0103D102D02F1080216DD0130AC4B7E
:104CB00010310728C2E90034CDE92901F1DD28AA25
:104CC0005946504603F0ECF900287EF437AE103D0B
:104CD000102DDDE929012BAAE8DC0130A04B55603D
:104CE00029440728CDE9290113602CDC38780832E3
:104CF0000644BCE70F9B013B0F9392E728AA594655
:104D0000504603F0CDF900287EF418AE2A992BAA5C
:104D100092E728AA5946504603F0C2F900287EF4CB
:104D20000DAE38782A992BAA9AE70799099828AAEC
:104D300003F0B6F900287EF401AE22992A9C0DF109
:104D4000AC08FFF784BB28AA5946504603F0A8F9DF
:104D500000287EF4F3AD38782A992BAA064486E71A
:104D60000799099828AA03F09BF900287EF4E6AD7C
:104D70002A9C0DF1AC08FFF75BBA0799099828AA9D
:104D800003F08EF900287EF4D9AD229B2A9C0DF108
:104D9000AC08FFF771BA0899019126A9049123A9DB
:104DA000039122A9029103210C9B099800915A4674
:104DB00000F03AFB0378302B054600F09581229BEA
:104DC000089AB94613440F9FEC180C9958460022D4
:104DD0000023FCF733F910B12346FFF7B0BB269B45
:104DE000A342BFF4ACAB30215A1C26921970269B0B
:104DF0009C42F9D8FFF7A3BB089B9DF883200E9433
:104E000006930C9308900F9013901090FEF784BEB9
:104E1000229A1092002A40F38181089909F0010337
:104E20000B4340F05581109B0C93662619F4806F5C
:104E300040F01C810C9B23EAE3730693CAE60799B2
:104E4000099828AA03F02CF900283EF425AEFEF7B5
:104E50007BBD00230893FEF7A1BC129B169A9A18FB
:104E6000109B0C92002B40F34D816726DEE726F065
:104E700020030693DDE914349B4604F100430C93B0
:104E80002D231D93DAE50799099828AA03F008F95C
:104E900000287EF453AD229D129B2A9C5D1B0DF1D0
:104EA000AC08FFF701BA4E421031DFF8B49034DAA3
:104EB0004146DDF824B0A8461024079D03E00831E0
:104EC000103E102E27DD01331032072BC1E900946C
:104ED000CDE92932F3DD28AA2946584603F0E0F847
:104EE00000287EF42BADDDE929322BA9E8E7089BE9
:104EF000EC186AE7079B5B6EDD0707D4079B9B896D
:104F00009C0503D4079B986D01F054FE4FF0FF33CE
:104F10000B93FEF722BD4546884601333244072BEA
:104F2000CDE92932C8F80090C8F804607FF7A4AA38
:104F30000799099828AA03F0B3F800287EF4FEAC7C
:104F4000DDE929320DF1AC08B3E40998591C01F0F0
:104F5000DBFE0546002800F00D810D905DE500BFE9
:104F60009C95000830238DF8843078234AE5129B05
:104F700026930C9B1BF8012CD97B8A425B4609D1F6
:104F8000302003F8010C269B5A1E269213F8012CA0
:104F90009142F6D0392A0BBF0C9A0132927AD2B2E2
:104FA00003F8012CC3E508990C9B09984C1C26A911
:104FB000049123A9039122A9029102215A46019446
:104FC000009100F031FA0546B9462C440F9FFCE6EB
:104FD000089B002B08BF0123089347F480730F93AD
:104FE000159B002BC0F2AE80DDF850B01D900C93E5
:104FF0000D90FFF789BA06230893FFF770BA159B47
:10500000604D002BB4BF2D229DF883205E4BB8BFAE
:105010008DF8832027F08007FEF772BD22AA0C9935
:10502000584602F03FFF00224FF07F53FBF79EFDF2
:1050300002460B46CDE9102300220023FBF7FEFFBA
:1050400008B101232293514B0C9314E5002962D13E
:1050500030228DF892200DF19302303302F8013B9B
:1050600024ABD31A1A93FFF7C0BA672619990B78A5
:10507000FF2B7BD00024109A204603E00130013141
:10508000FF2B08D0934206DAD21A4B78002BF5D1C9
:105090000B780134F4E71991109213900F940F9A42
:1050A000139B1C9913440C9A01FB03230C9323EAD2
:1050B000E3730693FFF7B0BA06F10F02D2B20121F3
:1050C000FFF752BA109B0C9378E500230D93D1E6BD
:1050D000169BD31819440C916626A7E619F0010F08
:1050E0003FF48EAAFFF788BA0C9958460022002395
:1050F000FBF7A4FF00287FF462AE089BC3F1010315
:1051000022935DE6C3F101031A4422EAE2730C9292
:10511000069367265EE50DF192029EE7089A09F074
:10512000010959EA020304D10123069366260C9370
:1051300050E5169B01331A4422EAE2730C9206935F
:10514000662647E50D9095E60E9B9AF8016092461B
:1051500053F8042B0E9342EAE2720892FEF71CBB4E
:1051600002231A93FFF741BA089C2DE700230F93FF
:10517000139394E7079A938943F040039381FEF7D2
:10518000E3BB00BF509500085495000858950008EF
:10519000F0B51F468B89ADF26C4D23F00203ADF8DC
:1051A0000C304B6E1993CB89ADF80E30CB69079359
:1051B0004B6A09931AAB009304934FF4806315462E
:1051C00006460293059316A800230C46069301F0A9
:1051D000EBFC2A463B4669463046FEF76FFA051E51
:1051E00007DB6946304601F011F9002818BF4FF07F
:1051F000FF35BDF80C305B0603D5A38943F04003AF
:10520000A381169801F0D2FC28460DF26C4DF0BD3A
:1052100038B5334B1B6805460C460BB19A6B12B37D
:10522000B4F90C3018079AB225D5216900292DD080
:1052300012F0010007D00020A06060694042A06128
:1052400039B1002038BD950758BF6069A0600029BA
:10525000F7D1120658BF0846F4D543F04003A381A6
:105260004FF0FF3038BD184601F004F9B4F90C30A6
:1052700018079AB2D9D4D1062AD5520714D4216975
:1052800043F00803A3819AB20029D1D102F420701F
:10529000B0F5007FCCD02146284601F08DFCB4F952
:1052A0000C3021699AB2C3E7216B51B104F140027D
:1052B000914204D0284601F0D5F9B4F90C3000220F
:1052C000226321690022C4E9001223F02403D7E7F6
:1052D000092243F040032A604FF0FF30A38138BD1C
:1052E00090A40020024B13B1024800F005B87047AB
:1052F0000000000099650008002301461A46184680
:1053000003F0FEBD2DE9F04F03690C69A34283B0A1
:10531000C0F28680013C01F11405A30000F11408DD
:10532000009355F8243058F8242001338A469A42D5
:1053300008EB8401814605EB84070191B2FBF3F68B
:1053400038D30023AE4640469B465EF8041B0268F5
:105350001FFA81FC06FB0C33090C4FEA134C06FBC9
:1053600001CC99B2ABEB01011FFA8CF311FA82F177
:10537000C3EB124202EB214289B241EA0241774576
:1053800040F8041B4FEA1C434FEA224BDDD2009B3E
:1053900058F8033073B9019B043B984504D307E0E8
:1053A000984504F1FF3403D253F80429002AF7D0BA
:1053B000C9F810405146484602F060FA00282BDB3D
:1053C00001364046002355F8041BD0F800C08AB2CD
:1053D0009A1A0B0C12FA8CF2C3EB1C4303EB224318
:1053E00092B242EA0342AF4240F8042B4FEA234311
:1053F000E9D258F8242008EB84036AB9043B9845A5
:1054000004D307E0984504F1FF3403D253F804298C
:10541000002AF7D0C9F81040304603B0BDE8F08F3D
:10542000002003B0BDE8F08F2DE9F04F016C99B07A
:1054300090469946CDE90489259D044641B1426CC8
:105440004A60012393408B6001F0BCFF002323647A
:10545000B9F1000AB4BF012300232B60764BBCBF17
:105460002AF0004ACDF814A033EA0A0300F0AA801B
:10547000DDE904231046194600220023CDE90A0184
:10548000FBF7DCFD074670B1249A01231360269BCD
:10549000002B00F0E48269481860431E03930398D0
:1054A00019B0BDE8F08F16AB019317AB00932046FF
:1054B000DDE90A2302F0A8FA5FEA1A56054640F031
:1054C0009780DDE916763E4406F23240202840F30C
:1054D000B583C0F140000AFA00FA06F2124028FA39
:1054E00000F04AEA0000FBF7C7FA0123013EA1F1F0
:1054F000F8710F93524B0022FBF780F948A3D3E9D0
:105500000023FBF733FB48A3D3E90023FBF778F92B
:10551000804630468946FBF7BFFA45A3D3E900230E
:10552000FBF724FB02460B4640464946FBF768F969
:1055300080468946FBF7CAFD002283460023404689
:105540004946FBF785FD002840F07C82BBF1160F31
:1055500000F26B823B4B03EBCB03D3E90023DDE985
:105560000A01FBF775FD002872D00023BE1B0E93C5
:10557000731E0BF1FF3B069300F15E82002309933B
:10558000BBF1000F6BDA099BCDF81CB0A3EB0B034A
:105590000993CBF100030D93229B092B4FF0000BD5
:1055A00066D8052B40F34883043B22930026229BB8
:1055B000023B032B00F26886DFE813F05C04590419
:1055C00050043304249A42F20F73CAF3130A13608F
:1055D0005AEA08031AD1269B002B00F064861A4B66
:1055E00003930833269A0398136019B0BDE8F08F2F
:1055F000DDE90A12C2F31303084643F07F510F9707
:10560000A6F2FF36169F41F4401173E7269B002B4C
:1056100040F0EA830D4B039341E700BFAFF30080F6
:1056200061436F63A787D23FB3C8608B288AC63FA8
:10563000FB799F501344D33F0000F07F8995000809
:105640000000F83FF8960008B0950008AC950008F7
:10565000BE1B731E069300F185840E900990069B75
:105660005B44CDE9063B00230D93229B092B98D97F
:105670000023CDE9223301264FF0FF330C96089327
:10568000089B129300216164204601F075FE03908F
:10569000002800F00186039B2364089B0E2B00F278
:1056A0001381002E00F010810799002940F35C84DB
:1056B000AE4B01F00F0203EBC2034FEA2118C905FC
:1056C000D3E9006740F11484A94BDDE90A01D3E96D
:1056D0000823FBF775FBCDE9100108F00F084FF028
:1056E000030AB8F1000F13D0DFF8849218F0010F0D
:1056F00009D030463946D9E90023FBF737FA0AF1D9
:10570000010A06460F465FEA680809F10809EDD16B
:10571000DDE9100132463B46FBF752FB80468946E5
:105720000E9B43B1934B002240464946FBF790FC49
:10573000002840F030855046FBF7AEF942464B4614
:10574000FBF714FA8C4B0022FBF75AF8A1F15073C7
:10575000CDE910011193089B002B00F09780079B67
:105760001493089B13930C9B002B00F0A584139AB1
:105770007E4B8249039E03EBC20353E902230020C0
:10578000FBF71EFBDDE91023FBF738F8CDE910012C
:1057900049464046FBF79AFC0746FBF77DF902466F
:1057A0000B4640464946FBF729F83037DDE9102320
:1057B00006F8017B80468946FBF74AFC002840F04A
:1057C0002985CDF854B00027DDE910AB1095139D65
:1057D00013942AE00137AF4280F22C85684B504683
:1057E00059460022FBF7C2F9654B002282468B46E0
:1057F00040464946FBF7BAF989468046FBF766FC06
:105800000446FBF749F902460B4640464946FAF77B
:10581000F5FF303406F8014B52465B468046894618
:10582000FBF716FC002840F0F38442464B465149F2
:105830000020FAF7E3FF52465B46FBF709FC00281D
:10584000C8D0DDE91343109D039A079302E0964206
:1058500000F0C884B24616F8013D392BF7D0013369
:10586000DBB23370079B01330793C8E15046FBF767
:1058700013F942464B46FBF779F93F4B0022FAF702
:10588000BFFFA1F15073CDE9100111933D4B40468C
:1058900049460022FAF7B2FFDDE910894B4642463D
:1058A00006460F46FBF7F2FB8146002840F0AA842B
:1058B000DDE91001024601F1004330463946FBF7AD
:1058C000C7FB002840F04583179B002BC0F28C805B
:1058D000079A0E2A00F38880244B03EBC203D3E916
:1058E00000AB239B002B1BDA089B002B18DC40F03D
:1058F0002E83244B002250465946FBF737F90246C7
:105900000B46DDE90A01FBF7ADFBDDF820904E46C2
:10591000002800F0C782239BDDF80C80DF43C9E23A
:10592000DDE90A7852465B4638464146FBF748FABD
:10593000FBF7CCFB81460990FBF7AEF852465B467D
:10594000FBF714F9039E0B46024641463846FAF728
:1059500055FF09F1300306F8013B089B012B00F0CD
:105960005C830694012704951C462AE0F8960008FB
:10597000D09600080000F03F00001C400000E03F0F
:10598000000024400000144052465B464046494611
:10599000FBF716FAFBF79AFB0546FBF77DF8524634
:1059A0005B46FBF7E3F801370B46024649464046A3
:1059B000FAF724FF05F13003A74206F8013B00F097
:1059C0002983AC4B0022FBF7D1F80022002380464C
:1059D0008946FBF733FB0028D6D0049D069C079B25
:1059E00001330793B2460AE10C9A002A3DD0229A6D
:1059F000012A40F39C82089B03F1FF380D9B43452D
:105A0000C0F26D82A3EB0808089B002BC0F23C8318
:105A1000069A1A440692099A17461A4409920121D5
:105A2000204601F077FD064623E00123BE1B0E93BE
:105A3000731E06937FF5A2ADC6F1010309930023FF
:105A400006939DE55846FBF727F842464B46FBF781
:105A5000F5FA00287FF47AAD0BF1FF3B76E5864B33
:105A60000393039819B0BDE8F08FDDF83480099FE7
:105A70000C9E002F0CDD069900290B4608DD099AC3
:105A8000B942A8BF3B46D21AFF1ACB1A0992069315
:105A90000D9BDBB10C9B002B00F05D82B8F1000F79
:105AA0000FDD31464246204601F010FE2A460146EF
:105AB0000646204601F05CFD29460546204601F0D9
:105AC00081FC0D9BB3EB080240F0D88201212046F7
:105AD00001F020FDBBF1000F814600F3B480229B52
:105AE000012B40F386814FF0000A0120BBF1000F2B
:105AF00040F0B580069A104410F01F0000F093802B
:105B0000C0F12003042B40F3D283099BC0F11C0099
